:020000040800F2
:1000000008040120DD010008E5010008E7010008FF
:10001000E9010008EB010008ED0100080000000004
:10002000000000000000000000000000EF010008D8
:10003000F101000800000000F3010008250200089B
:10004000F7010008F7010008F7010008F7010008B0
:10005000F7010008F7010008F7010008F7010008A0
:10006000F7010008F7010008F7010008F701000890
:10007000F7010008F7010008F7010008F701000880
:10008000F7010008F7010008F7010008F701000870
:10009000F7010008F7010008F7010008F701000860
:1000A000F7010008F7010008F7010008F701000850
:1000B000F7010008F7010008F7010008F701000840
:1000C000F7010008F7010008F7010008F701000830
:1000D000F7010008F7010008F7010008F701000820
:1000E000F7010008F7010008F7010008F701000810
:1000F000F7010008F7010008F7010008F701000800
:10010000F7010008F7010008F7010008F7010008EF
:10011000F7010008F7010008F7010008F7010008DF
:10012000F7010008F7010008F7010008F7010008CF
:10013000F7010008F7010008F7010008F7010008BF
:10014000F7010008F7010008F7010008F7010008AF
:10015000F7010008F7010008F7010008F70100089F
:10016000F7010008F7010008F7010008F70100088F
:10017000F7010008F7010008F7010008000000007F
:10018000F7010008F7010008F7010008F70100086F
:10019000F7010008F7010008F7010008F70100085F
:1001A000F7010008F7010008F7010008F70100084F
:1001B000F7010008F7010008F7010008F70100083F
:1001C000F7010008F7010008DFF80CD000F018F87C
:1001D00000480047C903000808040120064880477A
:1001E00006480047FEE7FEE7FEE7FEE7FEE7FEE71C
:1001F000FEE7FEE7FEE7FEE7F9020008C901000896
:10020000064C074D06E0E06840F0010394E8070063
:1002100098471034AC42F6D3FFF7DAFF7C040008AD
:100220009C04000800B503480078012801D100F0C3
:1002300095F800BD0200012070B5002000220223C5
:1002400000240221274D2D6805F00C0020B1042860
:1002500006D0082834D107E0234D244E356033E022
:10026000234D224E35602FE01E4D2D1F2D68C5F306
:1002700080541C4D2D1F2D6805F03F0154B11C4DBD
:10028000B5FBF1F5174E361F3668C6F3881605FB29
:1002900006F209E0144DB5FBF1F5124E361F366833
:1002A000C6F3881605FB06F20E4D2D1F2D68C5F30B
:1002B00001456D1C6B00B2FBF3F50C4E356003E09D
:1002C000094D0A4E356000BF00BF064D2D68C5F3CD
:1002D0000315084E705D054D2D68C540034E356011
:1002E00070BD0000083802400024F4000400012022
:1002F00040787D01640400081448006840F47000F0
:10030000124908601248006840F001001049086076
:1003100000200F49083108600D4800680D49084069
:100320000B4908600C48091D0860081F006820F48C
:100330008020091F0860002005490C3108604FF03B
:1003400000600249803908607047000088ED00E0D5
:1003500000380240FFFFF6FE103000240F480088EE
:10036000401C00B20D49088001200D494861002061
:1003700000E0401C0949B1F900108842F9DB002077
:10038000074948610548B0F90000B0F57A7F04DDFF
:1003900000200249088003490870704700000120CE
:1003A000000002400200012002E008C8121F08C13C
:1003B000002AFAD170477047002001E001C1121FE6
:1003C000002AFBD1704700002148006840F001007E
:1003D0001F4908601F48006840F001001D4908607F
:1003E0000846406848600846806840F00100886020
:1003F0000846C06840F00100C860FFF71DFF1648BE
:1004000000684FF47A72B0FBF2F1481EB0F1807FC1
:1004100000D31BE0481E4FF0E022506150170F221E
:10042000002804DB13071C0E0C4B1C5406E01307BA
:100430001D0E0B4B00F00F04241F1D5500BF0020A4
:100440004FF0E02290610720106100BF00BFFEE77F
:1004500030380240000002400400012000E400E0C7
:1004600018ED00E00000000000000000010203049D
:100470000607080900000000010203049C040008AC
:100480000000012008000000A8030008A4040008E0
:100490000800012000040000B80300086400010007
:0404A0000024F40040
:04000005080001DD11
:00000001FF
